:020000040800F2
:1000000000000220092F0008612E0008632E00085E
:10001000652E0008672E0008692E00080000000009
:100020000000000000000000000000006B2E00082F
:100030006D2E0008000000006F2E0008712E0008D1
:10004000592F0008592F0008592F0008592F000870
:10005000592F00087F2E0008592F0008592F00083B
:10006000592F0008592F0008592F0008592F000850
:10007000592F0008592F0008592F0008592F000840
:10008000592F0008592F0008592F0008592F000830
:10009000812E0008592F0008592F0008592F0008F9
:1000A000592F0008592F0008592F0008592F000810
:1000B000592F0008592F0008592F0008592F000800
:1000C000592F0008592F0008592F0008592F0008F0
:1000D000592F00088D2E0008992E0008592F00086E
:1000E000592F0008592F0008592F0008592F0008D0
:1000F000592F0008592F0008592F0008592F0008C0
:10010000592F0008592F0008592F0008592F0008AF
:10011000592F0008592F0008A52E0008B12E0008FD
:10012000592F0008592F0008592F0008592F00088F
:10013000592F00080000000000000000592F00089F
:10014000592F0008592F0008592F0008592F00086F
:10015000592F0008592F0008592F0008592F00085F
:10016000592F0008592F0008592F0008592F00084F
:10017000592F0008592F0008592F000800000000CF
:1001800000000000592F00080000000000000000DF
:10019000592F00080000000000000000592F00083F
:1001A000000000000000000000000000592F0008BF
:1001B000592F0008592F0008592F0008592F0008FF
:0401C000592F0008AB
:1001C80010B5054C237833B9044B13B10448AFF389
:1001D80000800123237010BD0400002000000000EF
:1001E8005831000808B5034B1BB103490348AFF366
:1001F800008008BD000000000800002058310008F9
:1002080081F0004102E000BF83F0004330B54FEABF
:1002180041044FEA430594EA050F08BF90EA020F2C
:100228001FBF54EA000C55EA020C7FEA645C7FEABF
:10023800655C00F0E2804FEA5454D4EB5555B8BFE2
:100248006D420CDD2C4480EA020281EA030382EA53
:10025800000083EA010180EA020281EA0303362DE5
:1002680088BF30BD11F0004F4FEA01314FF4801CB8
:100278004CEA113102D0404261EB410113F0004FCA
:100288004FEA03334CEA133302D0524263EB430381
:1002980094EA050F00F0A780A4F10104D5F1200E1F
:1002A8000DDB02FA0EFC22FA05F2801841F100017A
:1002B80003FA0EF2801843FA05F359410EE0A5F14E
:1002C80020050EF1200E012A03FA0EFC28BF4CF07F
:1002D800020C43FA05F3C01851EBE37101F0004535
:1002E80007D54FF0000EDCF1000C7EEB00006EEB42
:1002F8000101B1F5801F1BD3B1F5001F0CD34908CC
:100308005FEA30004FEA3C0C04F101044FEA445222
:1003180012F5800F80F09A80BCF1004F08BF5FEAA9
:10032800500C50F1000041EB045141EA050130BD89
:100338005FEA4C0C404141EB010111F4801FA4F12C
:100348000104E9D191F0000F04BF01460020B1FA81
:1003580081F308BF2033A3F10B03B3F120020CDAB9
:100368000C3208DD02F1140CC2F10C0201FA0CF097
:1003780021FA02F10CE002F11402D8BFC2F1200CFC
:1003880001FA02F120FA0CFCDCBF41EA0C019040B2
:10039800E41AA2BF01EB0451294330BD6FEA0404FB
:1003A8001F3C1CDA0C340EDC04F11404C4F12002E6
:1003B80020FA04F001FA02F340EA030021FA04F3F8
:1003C80045EA030130BDC4F10C04C4F1200220FA4F
:1003D80002F001FA04F340EA0300294630BD21FA8D
:1003E80004F0294630BD94F0000F83F4801306BF53
:1003F80081F480110134013D4EE77FEA645C18BF47
:100408007FEA655C29D094EA050F08BF90EA020FDD
:1004180005D054EA000C04BF1946104630BD91EAD5
:10042800030F1EBF0021002030BD5FEA545C05D1D8
:100438004000494128BF41F0004130BD14F5800417
:100448003CBF01F5801130BD01F0004545F0FE418B
:1004580041F470014FF0000030BD7FEA645C1ABFC0
:10046800194610467FEA655C1CBF0B46024650EAF7
:10047800013406BF52EA033591EA030F41F4002123
:1004880030BD00BF90F0000F04BF0021704730B5A9
:100498004FF4806404F132044FF000054FF000017E
:1004A80050E700BF90F0000F04BF0021704730B53F
:1004B8004FF4806404F1320410F0004548BF404214
:1004C8004FF000013EE700BF42004FEAE2014FEA69
:1004D80031014FEA02701FBF12F07F4393F07F4F44
:1004E80081F06051704792F0000F14BF93F07F4F76
:1004F800704730B54FF4607401F0004521F00041B9
:1005080020E700BF50EA010208BF704730B54FF03E
:1005180000050AE050EA010208BF704730B511F043
:10052800004502D5404261EB41014FF4806404F17B
:1005380032045FEA915C3FF4DCAE4FF003025FEAFD
:10054800DC0C18BF03325FEADC0C18BF033202EB85
:10055800DC02C2F1200300FA03FC20FA02F001FADF
:1005680003FE40EA0E0021FA02F11444C1E600BF7E
:1005780070B54FF0FF0C4CF4E06C1CEA11541DBF31
:100588001CEA135594EA0C0F95EA0C0F00F0DEF8FC
:100598002C4481EA030621EA4C5123EA4C5350EAE1
:1005A800013518BF52EA033541F4801143F4801332
:1005B80038D0A0FB02CE4FF00005E1FB02E506F0C3
:1005C8000042E0FB03E54FF00006E1FB03569CF018
:1005D800000F18BF4EF0010EA4F1FF04B6F5007F1E
:1005E80064F5407404D25FEA4E0E6D4146EB060690
:1005F80042EAC62141EA55514FEAC52040EA5E5019
:100608004FEACE2EB4F1FD0C88BFBCF5E06F1ED8C2
:10061800BEF1004F08BF5FEA500E50F1000041EBF9
:10062800045170BD06F0004646EA010140EA0200A6
:1006380081EA0301B4EB5C04C2BFD4EB0C0541EAC8
:10064800045170BD41F480114FF0000E013C00F3DD
:10065800AB8014F1360FDEBF002001F0004170BD01
:10066800C4F10004203C35DA0C341BDC04F114041A
:10067800C4F1200500FA05F320FA04F001FA05F2A6
:1006880040EA020001F0004221F0004110EBD37073
:1006980021FA04F642EB06015EEA430E08BF20EA9F
:1006A800D37070BDC4F10C04C4F1200500FA04F342
:1006B80020FA05F001FA04F240EA020001F00041D4
:1006C80010EBD37041F100015EEA430E08BF20EA47
:1006D800D37070BDC4F1200500FA05F24EEA020E8F
:1006E80020FA04F301FA05F243EA020321FA04F0BE
:1006F80001F0004121FA04F220EA020000EBD37075
:100708005EEA430E08BF20EAD37070BD94F0000F74
:100718000FD101F00046400041EB010111F4801FA8
:1007280008BF013CF7D041EA060195F0000F18BF59
:10073800704703F00046520043EB030313F4801F95
:1007480008BF013DF7D043EA0603704794EA0C0F4F
:100758000CEA135518BF95EA0C0F0CD050EA410665
:1007680018BF52EA4306D1D181EA030101F00041E2
:100778004FF0000070BD50EA410606BF104619460A
:1007880052EA430619D094EA0C0F02D150EA013616
:1007980013D195EA0C0F05D152EA03361CBF104657
:1007A80019460AD181EA030101F0004141F0FE41F6
:1007B80041F470014FF0000070BD41F0FE4141F47A
:1007C800780170BD70B54FF0FF0C4CF4E06C1CEA7A
:1007D80011541DBF1CEA135594EA0C0F95EA0C0F2F
:1007E80000F0A7F8A4EB050481EA030E52EA0335EA
:1007F8004FEA013100F088804FEA03334FF080550B
:1008080045EA131343EA12634FEA022245EA111537
:1008180045EA10654FEA00260EF000419D4208BFE8
:10082800964244F1FD0404F5407402D25B084FEA95
:100838003202B61A65EB03055B084FEA32024FF441
:1008480080104FF4002CB6EB020E75EB030E22BF9E
:10085800B61A754640EA0C005B084FEA3202B6EB5E
:10086800020E75EB030E22BFB61A754640EA5C000D
:100878005B084FEA3202B6EB020E75EB030E22BF9D
:10088800B61A754640EA9C005B084FEA3202B6EB9E
:10089800020E75EB030E22BFB61A754640EADC005D
:1008A80055EA060E18D04FEA051545EA16754FEABF
:1008B80006164FEAC30343EA52734FEAC2025FEADD
:1008C8001C1CC0D111F4801F0BD141EA00014FF06C
:1008D80000004FF0004CB6E711F4801F04BF01433D
:1008E8000020B4F1FD0C88BFBCF5E06F3FF6AFAE59
:1008F800B5EB030C04BFB6EB020C5FEA500C50F1E9
:10090800000041EB045170BD0EF0004E4EEA11316B
:1009180014EB5C04C2BFD4EB0C0541EA045170BD72
:1009280041F480114FF0000E013C90E645EA060EB6
:100938008DE60CEA135594EA0C0F08BF95EA0C0FE4
:100948003FF43BAF94EA0C0F0AD150EA01347FF42C
:1009580034AF95EA0C0F7FF425AF104619462CE703
:1009680095EA0C0F06D152EA03353FF4FDAE104666
:10097800194622E750EA410618BF52EA43067FF4B7
:10098800C5AE50EA41047FF40DAF52EA43057FF447
:10099800EBAE12E74A0011D212F5001211D20DD5B2
:1009A8006FF47873B3EB62520ED44FEAC12343F06D
:1009B800004343EA505323FA02F070474FF0000017
:1009C800704750EA013002D14FF0FF3070474FF0C6
:1009D8000000704753B94AB9002908BF00281CBF56
:1009E8004FF0FF314FF0FF3000F07AB9ADF1080C4D
:1009F8006DE904CE00F006F8DDF804E0DDE9022335
:100A080004B070472DE9F0478C460D460446089E11
:100A1800002B51D18A4217466DD9B2FA82FEBEF137
:100A2800000F0BD0CEF1200C01FA0EF520FA0CFCC9
:100A380002FA0EF74CEA050C00FA0EF44FEA174AD0
:100A4800250CBCFBFAF81FFA87F90AFB18CC45EA13
:100A58000C4508FB09F3AB420AD9ED1908F1FF323E
:100A680080F02381AB4240F22081A8F102083D4486
:100A7800ED1AA4B2B5FBFAF00AFB105544EA054496
:100A880000FB09F9A14509D9E41900F1FF3380F009
:100A98000A81A14540F2078102383C44A4EB0904CD
:100AA80040EA08400021002E61D024FA0EF4002309
:100AB80034607360BDE8F0878B4207D9002E54D0AC
:100AC800002186E821000846BDE8F087B3FA83F1E3
:100AD800002940F08E80AB4202D3824200F2FA80B5
:100AE800841A65EB03050120AC46002E3FD086E84A
:100AF8001010BDE8F08712B90127B7FBF2F7B7FA73
:100B080087FEBEF1000F34D1EB1B3A0C1FFA87FCAD
:100B18000121B3FBF2F8250C02FB183345EA034523
:100B28000CFB08F3AB4207D9ED1908F1FF3002D2EC
:100B3800AB4200F2D1808046ED1AA3B2B5FBF2F0C9
:100B480002FB105543EA05440CFB00FCA44507D9F9
:100B5800E41900F1FF3302D2A44500F2B880184628
:100B6800A4EB0C0440EA08409DE731463046BDE856
:100B7800F087CEF1200405FA0EF307FA0EF720FAF3
:100B880004F83A0C25FA04F448EA0308B4FBF2F135
:100B98004FEA184502FB11441FFA87FC45EA044551
:100BA80001FB0CF3AB4200FA0EF409D9ED1901F17F
:100BB800FF3080F08A80AB4240F2878002393D44A2
:100BC800EB1A1FFA88F5B3FBF2F002FB103345EA83
:100BD800034500FB0CF3AB4207D9ED1900F1FF38D0
:100BE8006FD2AB426DD902383D44EB1A40EA01415D
:100BF8008FE7C1F1200722FA07F88B4005FA01F4C4
:100C080048EA030320FA07FE4FEA134CFD404EEA78
:100C1800040EB5FBFCF94FEA1E440CFB19551FFAEC
:100C280083F844EA054509FB08F4AC4202FA01F2EC
:100C380000FA01FA08D9ED1809F1FF3043D2AC42A5
:100C480041D9A9F102091D442D1B1FFA8EFEB5FBDF
:100C5800FCF00CFB10554EEA054400FB08F8A045D3
:100C680007D9E41800F1FF3529D2A04527D9023861
:100C78001C4440EA0940A4EB0804A0FB02894C4547
:100C8800C6464D4615D312D056B1BAEB0E0364EBE7
:100C9800050404FA07F7CB401F43CC403760746063
:100CA8000021BDE8F0871846F8E69046E0E6C24520
:100CB800EAD2B8EB020E69EB03050138E4E72846EF
:100CC800D7E7404691E78146BEE7014678E7023814
:100CD8003C4445E7084608E7A8F102083D442BE7ED
:100CE800704700BF10B5084B044618684FF47A7374
:100CF800B0FBF3F000F034FC002221464FF0FF3047
:100D080000F0EEFB002010BD0000002008B50B4BE2
:100D18001A6842F400721A601A6842F480621A6013
:100D28001A6842F480721A60032000F0C7FB0020A2
:100D3800FFF7D8FF01F09AFF002008BD003C0240F1
:100D4800024A136801331360704700BFE4000020B3
:100D5800014B1868704700BFE40000204A6901236E
:100D680030B503FA02F53C4BD3F8000240F001001D
:100D7800C3F80002D3F8000220F47C50C3F8000244
:100D8800D3F800024C6A40EA0420C3F80002D3F802
:100D98001C02EC432040C3F81C02C869002836D165
:100DA800D3F80C022040C3F80C02D200C8688B8824
:100DB80002F1804202F5C84243EA0043C2F84032D9
:100DC80088680B8843EA0043C2F844328B6922489A
:100DD800002B35D1D0F804322340C0F804320B6917
:100DE8001D4A8BBBD0F814321C40C0F814420B6A61
:100DF800012B02BFD2F81C322B43C2F81C32D2F8A6
:100E0800003223F00103C2F80032002030BD01286F
:100E1800DCD1D3F80C022843C3F80C020B6888888D
:100E280040EA0340D30003F1804303F5C8438A89AD
:100E3800C3F84002886842EA0042C3F84422C5E782
:100E4800D0F804322B43C8E7012B02BFD2F8143282
:100E58002B43C2F81432CAE70064004070B5044658
:100E6800002872D090F83C3003F0FF021BB980F8DC
:100E78003D2001F033FF022384F83C3023681A68D0
:100E880022F002021A601A6842F001021A60FFF7A3
:100E98005FFF064623685D6815F0010557D05A685C
:100EA800D1074FD5A269012A1A680CBF42F0800207
:100EB80022F080021A60E269012A1A680CBF42F027
:100EC800400222F040021A60226A012A1A680CBF06
:100ED80042F0200222F020021A60626A012A1A688F
:100EE8000CBF42F0100222F010021A60A26A012A16
:100EF8001A680CBF42F0080222F008021A60E26A7F
:100F0800012A1A680CBF42F0040222F004021A6097
:100F1800E168A2680A4321690A4361690A43616872
:100F280001390A43DA611A6822F001021A60FFF7F0
:100F38000FFF054623685A68D20713D4586810F083
:100F480001001BD0042384F83C30012070BDFFF75A
:100F5800FFFE801B0A289DD9032084F83C0084F8F2
:100F68003D5070BDFFF7F4FE401B0A28E2D903206C
:100F7800002384F83C0084F83D3070BD01232064D0
:100F880084F83C3070BD000002682DE9F84393688E
:100F98005B0104460F4606D493681D0103D4936889
:100FA800D80040F1B18094F83D30012B00F0B280B8
:100FB800012384F83D3094F83C30DBB2322B66D004
:100FC800622B66D0222B66D1422384F83C3093688A
:100FD800590162D4936813F0006F14BF01260226EA
:100FE8004FEA061E02EB0E03206BD3F880118568CA
:100FF800D0F80CC001F00101C3F88011002D4ED1CA
:101008000568D3F880114CEA45550D43C3F8805163
:10101800D3F884510169DFF80881DFF8089101F0FD
:101028000F0125F00F050161C3F88451D3F88451ED
:101038002943C3F8841172444169C2F8881181694F
:10104800C2F88C11D3F8802142F00102C3F8802144
:10105800FFF77EFE0546314A23689B68002E45D17E
:1010680032EA030314BF0123002313BB94F83C3076
:10107800DBB2522B42D0722B42D0422B42D12223D8
:10108800002084F83C3084F83D00BDE8F883522302
:101098009BE7722399E7122397E70026A0E74168A8
:1010A800D3F8808145EA0C0545EAC10545EA0805FB
:1010B800ACE77B1CD0D05FB9032384F83C302368AD
:1010C80066B1012E0CBF4FF400424FF4000206E057
:1010D800FFF73EFE401B8742BDD2EDE780229A60B3
:1010E800002384F83D300320BDE8F883012E02D1A7
:1010F80039EA0303B6E738EA0303B3E73223BFE765
:101108006223BDE70123BBE7042384F83C300120B8
:10111800BDE8F8830220BDE8F88300BF030000049F
:10112800000003100003000810B5002936D190F81C
:101138003C30222B50D090F83C30422B4CD090F8C9
:101148003C30622B48D090F83C30722B44D090F859
:101158003D30012B40D0012380F83D3090F83C30E1
:10116800DBB229BB322B2BD0522B2BD0122B0CBF2E
:101178004223222380F83C30026800230364546928
:1011880044F40F4444F00104546180F83D30E9B957
:10119800536943F00A035361084610BD0129D6D1AB
:1011A80090F83C30322B17D090F83C30522BC5E7E2
:1011B800222B05D0422B05D0122B05D15223D9E77B
:1011C8006223D7E77223D5E73223D3E7516941F089
:1011D80050015161184610BD022010BD704738B546
:1011E800426B836B002908BF1346026802EB0114A7
:1011F800D4F8B05105F004059D60002D51D1D4F804
:10120800B0516D0D1D60D4F8B05105F00205DD60D8
:10121800D4F8B451D4F8B4411962C4F30724DC619A
:1012280002EB011405F00F051D61D4F8B8511D75C6
:10123800D4F8B8512D0A5D75D4F8B8512D0C9D75A8
:10124800D4F8B8512D0EDD75D4F8BC511D76D4F8FC
:10125800BC512D0A5D76D4F8BC512D0C9D76D4F87E
:10126800BC41240EDC76202301BBD360536923F0F4
:101278000A03536190F83C3003F0EF03222B01BFBF
:101288000268536923F40F43536190F83C30DBB292
:10129800D1B9622B0FD0722B14D0422B1ED112233E
:1012A8000AE0D4F8B051ED085D60ACE7136153690A
:1012B80023F05003DDE7322380F83C3001F0E4FAF4
:1012C800002038BD5223F7E7622B03D0722B03D0DE
:1012D800522BE3E72223EFE74223EDE70123EBE775
:1012E80070470000036870B5DD685A6915F010058D
:1012F800044606D012F008051EBF1022DA604FF42B
:10130800007519695A69C90605D5520642BF1022E7
:1013180045F480651A615A69D60735D59E68634ACF
:1013280098689968B24305D0614A824302D0614AFD
:101338008A4329D1986899689A68800704D48905EE
:1013480002D4960340F190805A6922F001025A6152
:1013580094F83C20122A02BF5A6922F40F425A61BB
:1013680094F83C30DBB2522B78D0722B78D0422BD9
:1013780078D1222384F83C302046FFF72FFF2268DB
:101388004D4B91680B4393602368DA685B6990075B
:1013980005D0990703D500212046FFF720FF2368D1
:1013A8001A695B69920705D0DE0603D5012120463C
:1013B800FFF715FF236C1D43236825649869596955
:1013C8005A69C00707D5CE0505D5150442BF226C5A
:1013D80042F001022264986959695A69800707D561
:1013E800890505D5120442BF226C42F0020222642C
:1013F800986959695A69460707D54D0505D51004F6
:1014080042BF226C42F004022264986959695A6901
:1014180010F0700F11D009050FD512040DD59A6977
:1014280002F07002302A35D021D8102A29D0202A7B
:101438002CD09A6922F070029A61226C6AB1042257
:101448005A60012284F83C205A6922F40F4222F0A3
:101458005B025A612046FFF743FF70BD322389E7DC
:10146800622387E7012385E745F4006587E7502A6B
:1014780014D0602A16D0402ADBD1226C42F04002F8
:1014880002E0226C42F008022264D2E7226C42F0A9
:101498001002F9E7226C42F02002F5E7226C42F0D4
:1014A8008002F1E7226C42F48072EDE70300000449
:1014B800000300080000031019050100074AD3685B
:1014C80023F4E0631B041B0C43F0BF63000243F4E6
:1014D800003300F4E0600343D360704700ED00E0A0
:1014E800174B30B5DC68C4F30224C4F10703251D8B
:1014F800042B28BF0423062D4FF0010505FA03F33A
:1015080003F1FF338CBF033C00241940A14005FAC6
:1015180004F4013C2240002842EA01024FEA021288
:10152800AFBF00F1604000F00F00064BD2B2A5BF7C
:1015380000F56140D2B21A5480F8002330BD00BFD4
:1015480000ED00E014ED00E04209012300F01F0067
:1015580003FA00F0014B43F82200704700E100E075
:101568000138B0F1807F0AD2064B074A5860F02153
:1015780082F823100020072298601A607047012023
:10158800704700BF10E000E000ED00E0044B1A686F
:1015980004280CBF42F0040222F004021A607047CB
:1015A80010E000E0704708B5FFF7FCFF08BD90F8B1
:1015B8003530022B03D08023436501207047026831
:1015C800052380F83530136823F0010313600020E9
:1015D800704700002DE9F04F85B00B68DFF8A08157
:1015E800654ADFF8A091019300234FF0010E019C9A
:1015F8000EFA03FE0EEA0406B64540F0AA804C68CF
:1016080024F01007022F16D14FEAD30A00EB8A0AFA
:1016180003F0070BDAF820504FEA8B0B4FF00F0C52
:101628000CFA0BFC25EA0C0C0D6905FA0BF545EADA
:101638000C05CAF820504FEA430A0325D0F800B039
:1016480005FA0AF5ED4304F0030C0BEA050B0CFA56
:101658000AFC013F4CEA0B0C012FC0F800C011D85E
:10166800876807EA050BCF6807FA0AFC4CEA0B07FC
:101678008760476827EA0E0EC4F300179F4047EAC1
:101688000E074760C7683D408F6807FA0AF73D4371
:10169800C560E5005DD54FF0000BCDF80CB0D8F86B
:1016A8004470364D47F48047C8F84470D8F8447001
:1016B80007F480470397039F23F0030707F1804748
:1016C80007F59C3703F0030CD7F808A04FEA8C0CF9
:1016D8004FF00F0E0EFA0CFEA8422AEA0E0E3FD06B
:1016E80005F58065A8423DD005F58065A8423BD048
:1016F80005F58065A84239D005F58065A84237D040
:10170800484537D005F50065A84214BF07250625CA
:1017180005FA0CF545EA0E05BD601568F74314F4A3
:10172800803F0CBF3D4035431560556814F4003FB9
:101738000CBF3D4035435560956814F4801F0CBFBD
:101748003D4035439560D568A40254BF3D403543BC
:10175800D5600133102B7FF448AF05B0BDE8F08F9A
:101768005D46D5E70125D3E70225D1E70325CFE775
:101778000425CDE70525CBE7003C014000000240E9
:10178800003802400014024037B500230193184B7B
:10179800184C1A6C42F080521A641B6C03F0805388
:1017A8000193019B144B01221A60FFF7D1FA0546F9
:1017B8006368DA030BD5114B0E4C01221A60FFF750
:1017C800C7FA054663689B030AD5002006E0FFF7C1
:1017D800BFFA401BB0F57A7FEAD9032003B030BDC9
:1017E800FFF7B6FA401BB0F57A7FEBD9F5E700BFF3
:1017F800003802400070004040000E4244000E4293
:101808002DE9F0410D46044610B90120BDE8F081EC
:10181800444B1A6802F00F028A4228D321688F07C6
:101828002DD4C80740D43F4B1A6802F00F029542E6
:1018380066D3226851076CD4130707D53A4A216941
:10184800936823F4604343EAC103936000F098F877
:10185800354B364A9B68C3F30313D35CD840344BEB
:1018680018600020FFF73EFA0020BDE8F081CAB2F8
:101878001A701B6803F00F039942C6D1CEE72A4BB2
:1018880011F0040F1EBF9A6842F4E0529A600E07E6
:1018980042BF9A6842F460429A609A68A06822F04F
:1018A800F00202439A60BCE762681F4B012A1DD10F
:1018B8001B6813F4003FA8D01B4EB36823F0030342
:1018C8001343B360FFF744FA41F288380746B36818
:1018D800626803F00C03B3EB820FA4D0FFF738FA69
:1018E800C01B4045F3D90320BDE8F081911E0129B2
:1018F8001B6802D813F0007FDDE713F0020FDAE768
:10190800EAB21A701B6803F00F039D427FF47DAFA3
:101918008FE70549E0688B6823F4E05303438B6045
:101928008AE700BF003C02400038024070310008DE
:1019380000000020014B1868704700BF000000201D
:10194800044B054A9B68C3F38223D35C034A10689F
:10195800D84070470038024080310008000000205D
:10196800044B054A9B68C3F34233D35C034A1068AF
:10197800D84070470038024080310008000000203D
:101988001C4908B58B6803F00C03082B03D00C2BFB
:101998001AD0194808BD4A684B684968164813F4B4
:1019A8008003C1F3881118BF002302F03F02A1FB96
:1019B8000001FFF70FF80F4B5B68C3F301430133D6
:1019C8005B00B0FBF3F008BD4A684B6849680A48F9
:1019D80013F48003C1F3881118BF002302F03F02FB
:1019E800A1FB0001FEF7F6FF024B5B68C3F302732D
:1019F800E7E700BF003802400024F4000368F7B5A9
:101A0800DE0704463BD423689D0700F192802368D3
:101A18001E0700F1DC8023685D072AD500230193A7
:101A2800934B944D1A6C42F080521A641B6C03F06D
:101A380080530193019B2B6843F480732B60FFF75D
:101A480087F906462B68DA0540F1E380A368884DDC
:101A5800012B40F0E5802B6F43F001032B67FFF764
:101A680077F9834D064641F288372B6F9B0740F183
:101A7800F880A269002A40F0038100201EE07C4B18
:101A88009A6802F00C02042A10D09A6802F00C023C
:101A9800082A02D15B68580208D4754B9A6802F08C
:101AA8000C020C2A0CD15A68510209D5704B1B68DC
:101AB8009A03A8D56368002BA5D1012003B0F0BD17
:101AC8006268B2F5803F11D11A6842F480321A6018
:101AD800FFF73EF9664D06462B689B0393D4FFF744
:101AE80037F9801B6428F7D90320E7E7604DB2F582
:101AF800A02F2B6807D143F480232B602B6843F475
:101B080080332B60E4E723F480332B602B6823F4C5
:101B180080232B60002ADBD1FFF71AF906462B68D1
:101B28009F037FF570AFFFF713F9801B6428F6D980
:101B3800DAE74F4B9A6812F00C0F10D09A6802F04F
:101B48000C02082A02D15B68580208D5484A9368F3
:101B580003F00C030C2B11D1536859020ED4444BDB
:101B68001A68920702D5E268012AA6D11A68216983
:101B780022F0F80242EAC1021A6048E7E2683E4BE6
:101B8800B2B101221A60FFF7E3F8394D06462B6817
:101B98009B0707D52B68226923F0F80343EAC203A1
:101BA8002B6034E7FFF7D4F8801B0228EFD99BE7B6
:101BB8001A60FFF7CDF82E4D06462B689F077FF574
:101BC80026AFFFF7C5F8801B0228F6D98CE76269B3
:101BD8002A4B7AB101221A60FFF7BAF8244D06465B
:101BE8006B6F98073FF517AFFFF7B2F8801B022815
:101BF800F6D979E71A60FFF7ABF81D4D06466B6F0B
:101C080099077FF508AFFFF7A3F8801B0228F6D9DC
:101C18006AE7FFF79DF8801B02287FF613AF63E79A
:101C2800052B04D12B6F43F004032B6713E72A6FAE
:101C380022F001022A672A6F22F004022A67002B89
:101C48007FF40DAFFFF784F841F2883706462B6F13
:101C580098077FF50EAFFFF77BF8801BB842F6D9DF
:101C680042E7FFF775F8801BB8427FF6FEAE3BE708
:101C7800003802400070004000004742800E474292
:101C8800234DAB6803F00C03082B3FF416AF214E2D
:101C98000023022A33602DD1FFF75AF807462B6834
:101CA800990121D4226AE3691343626A43EA8213E1
:101CB800E26A43EA0263226B43EA0273A26A144CA3
:101CC8005208013A43EA02436B6001233360FFF78D
:101CD8003FF8054623689A013FF5CFAEFFF738F87D
:101CE800401B0228F6D9FFE6FFF732F8C01B02288E
:101CF800D5D9F9E6FFF72CF804462B689B017FF548
:101D0800BCAEFFF725F8001B0228F6D9ECE600BFA9
:101D1800003802406000474270477047704770477C
:101D2800704703681A69910710B504460ED5DA683A
:101D380092070BD56FF002021A619B6901229B077B
:101D4800027677D0FFF7EAFF0023237623681A6923
:101D5800500710D5DA6851070DD56FF004021A61E3
:101D68009B69022213F4407F2276204668D0FFF751
:101D7800D5FF0023237623681A6912070FD5DA687E
:101D880010070CD56FF008021A61DB690422990765
:101D9800227620465AD0FFF7C1FF00232376236816
:101DA8001A69D20610D5DA68D0060DD56FF0100280
:101DB8001A61DB69082213F4407F227620464BD053
:101DC800FFF7ACFF0023237623681A69D10708D5EB
:101DD800DA68D20705D56FF001021A612046FFF7CD
:101DE8009BFF23681A69100608D5DA68110605D51D
:101DF8006FF080021A61204600F0D7F823681A694C
:101E0800520608D5DA68500605D56FF040021A6107
:101E18002046FFF785FF23681A69910622D5DA68FC
:101E280092061FD56FF0200220461A61BDE81040C7
:101E380000F0BAB8FFF771FF2046FFF770FF83E79D
:101E4800FFF76BFF2046FFF76AFF92E7FFF765FF92
:101E58002046FFF764FFA0E7FFF75FFF2046FFF784
:101E68005EFFAFE710BD00002E4A0368904212D013
:101E7800B0F1804F0FD0A2F57C4290420BD002F512
:101E88008062904207D002F58062904203D002F54A
:101E9800784290421DD14A6823F070031343214AC7
:101EA800904204D1CA6823F44073134328E0B0F188
:101EB800804FF7D01C4A9042F4D002F580629042DD
:101EC800F0D002F580629042ECD002F57842904260
:101ED800E8D0164A9042E5D002F580629042E1D0FF
:101EE80002F580629042DDD0A2F598329042D9D0B6
:101EF80002F580629042D5D002F580629042D1D03E
:101F080003608B68C3620B688362064B984206D0F5
:101F180003F58063984202D00123436170470B693F
:101F28000363F9E70000014000040040004001405D
:101F380010B50446A0B190F8393003F0FF021BB980
:101F480080F8382000F0FAFE022384F8393020683F
:101F5800211DFFF789FF012384F83930002010BDC7
:101F6800012010BD90F83830012B10B54FF0020356
:101F780018D080F8393003680C685A68496822F02C
:101F880070025A605A6822435A609A6822F08002A6
:101F98009A609A680A439A60012380F839300023CE
:101FA80080F83830184610BD704770470368DA6803
:101FB80022F49072DA605A6922F001025A612023F1
:101FC80080F83A30704700002DE9F0470668C2688B
:101FD8003369C16923F4405313433361044683686A
:101FE8000069F2680343606922F41642034322F051
:101FF8000C020B431343F3607369A26923F4407323
:102008001343B1F5004F73617A4B7CD19E4203D0E4
:1020180003F580639E4244D1FFF7A2FC192505FB16
:1020280000F360684FF064094000B3FBF0F3B3FBC2
:10203800F9F34FEA0318FFF793FC636868435B0002
:10204800B0FBF3F7FFF78CFC636868435B00B0FBF9
:10205800F3F3B3FBF9F309FB1373DB003233B3FB80
:10206800F9F35B0003F4F877FFF77AFC62686843DA
:102078005200B0FBF2FAFFF773FC636868435B0039
:10208800B0FBF3F3B3FBF9F309FB13A3DB00323323
:10209800B3FBF9F303F0070343443B44B360BDE8E3
:1020A800F087FFF74DFC192505FB00F360684FF03A
:1020B80064094000B3FBF0F3B3FBF9F34FEA0318EC
:1020C800FFF73EFC636868435B00B0FBF3F7FFF77C
:1020D80037FC636868435B00B0FBF3F3B3FBF9F3C9
:1020E80009FB1373DB003233B3FBF9F35B0003F432
:1020F800F877FFF725FC626868435200B0FBF2FAF4
:10210800FFF71EFCB9E79E4202D03B4B9E4240D1EE
:10211800FFF726FC676819254FF0640905FB00F3F3
:10212800BF00B3FBF7F3B3FBF9F31F01FFF718FC8C
:10213800636868439B00B0FBF3F8FFF711FC636822
:1021480068439B00B0FBF3F3B3FBF9F309FB13837C
:102158001B013233B3FBF9F303F0F008FFF700FC7F
:10216800626868439200B0FBF2FAFFF7F9FB636814
:1021780068439B00B0FBF3F3B3FBF9F309FB13A32C
:102188001B013233B3FBF9F303F00F0343EA0803EF
:1021980083E7FFF7D5FB676819254FF0640905FB4E
:1021A80000F3BF00B3FBF7F3B3FBF9F31F01FFF72D
:1021B800C7FB636868439B00B0FBF3F8FFF7C0FBFD
:1021C800636868439B00B0FBF3F3B3FBF9F309FBC7
:1021D80013831B013233B3FBF9F303F0F008FFF765
:1021E800AFFB626868439200B0FBF2FAFFF7A8FB06
:1021F800BDE700BF0010014000140140F8B50446D7
:102208000E4617461D4621680B6836EA030301D1BE
:102218000020F8BD6B1CF7D095B92368DA6822F462
:10222800D072DA605A6922F001025A61202384F8D8
:10223800393084F83A30002384F838300320F8BD68
:10224800FEF786FDC01B8542DDD2E6E710B50446E1
:1022580040B390F8393003F0FF021BB980F83820FA
:1022680000F0A2FD2268242384F83930D36823F4CF
:102278000053D3602046FFF7A7FE23681A6922F4AB
:1022880090421A615A6922F02A025A61DA6842F4C5
:102298000052DA6000202023E06384F8393084F8A3
:1022A8003A3010BD012010BD2DE9F0411F4690F8CD
:1022B8003930202B04460D4690464FD100294AD08C
:1022C800002A48D090F83830012B47D0012380F8F5
:1022D80038300023C363212380F83930FEF738FDF6
:1022E800A4F824800646A4F82680E38C9BB26BB938
:1022F8003B46324640212046FFF780FFB0B92023F5
:1023080084F8393084F83800BDE8F081E38C013B6B
:102318009BB2E384A368B3F5805F32463B464FF037
:10232800800120460ED1FFF769FF10B10320BDE8F8
:10233800F0812B882268C3F308035360236943B9EB
:102348000235D2E7FFF75AFF0028EFD123682A7831
:102358005A600135C9E70120BDE8F0810220BDE8D7
:10236800F0817047704790F83A30222B10B532D17F
:10237800836801690268B3F5805F836A1FD1526878
:10238800C9B9C2F3080223F8022B8362C48D013C49
:10239800A4B2C4856CB90368DA6822F49072DA6072
:1023A8005A6922F001025A61202380F83A30FFF777
:1023B800D9FF002010BDD2B223F8012BE5E721B9DF
:1023C800591C526881621A70E0E75268591C816290
:1023D80002F07F02F7E7022010BD704703681A6811
:1023E800D96870B5160704465D6907D196065AD5AF
:1023F8008D0658D5BDE87040FFF7B5BF15F001054B
:1024080002D111F4907F4ED0D30705D5CE0542BF37
:10241800E36B43F00103E363500704D51DB1E36B9D
:1024280043F00203E363930704D51DB1E36B43F064
:102438000403E363160704D51DB1E36B43F00803F7
:10244800E363E36B002B66D0950604D5880602D5B6
:102458002046FFF788FF23685D69E26B1107204675
:1024680002D415F040051AD0FFF7A0FD23685A6979
:10247800520610D55A69606B22F040025A6150B179
:10248800254B0365FFF793F8002844D0606BBDE83F
:102498007040036D18472046FFF79FFF70BDFFF798
:1024A8009CFFE56370BD160627D50D0625D594F863
:1024B8003920212A2FD1A268B2F5805F226A17D16C
:1024C8001188C1F308015960216979B90232226281
:1024D800E28C013A92B2E284EAB9DA6822F0800228
:1024E800DA60DA6842F04002DA6070BD0132EEE785
:1024F800511C216212785A60EAE750060BD54A0649
:1025080009D5DA6822F04002DA60202384F83930ED
:102518002046FFF726FF70BD2525000808B5806B0B
:102528000023C385C384FFF758FF08BD08B590F89A
:102538005030F02B4FD190F85130333B032B38D823
:10254800DFE803F0024A81B803469FED767A53F834
:10255800522F02639B88838690F8312090F83030A0
:1025680003EB02231BB207EE903AF8EEE77A90F8F5
:10257800332090F83230C7EE876A03EB02231BB290
:1025880090F8352007EE903AF8EEE77AC0ED006A49
:10259800C7EE876A90F8343003EB02231BB207EECC
:1025A800903AF8EEE77AC0ED016AC7EE876AC0EDA7
:1025B800026AD0ED0A7A90ED097A5B4B87EE270A1A
:1025C80083ED000A00F0EAFCDFED587A584B37EE4D
:1025D800C00A83ED000A08BD0346B2EE047A53F838
:1025E800522FC0F836209B88438790F8372090F800
:1025F800363003EB02231BB207EE903AF8EEE77A87
:1026080090F8392090F83830C7EE876A03EB022338
:102618001BB290F83B2007EE903AF8EEE77AC0ED4F
:10262800036AC7EE876A90F83A3003EB02231BB2BD
:1026380007EE903AF8EEE77AC0ED046AC7EE876ACB
:10264800C0ED056AB5E703469FED3A7A53F8522F75
:10265800C2639B88A0F8403090F83D2090F83C3049
:1026680003EB02231BB207EE903AF8EEE77A90F8F4
:102678003F2090F83E30C7EE876A03EB02231BB277
:1026880090F8412007EE903AF8EEE77AC0ED086A34
:10269800C7EE876A90F8403003EB02231BB207EEBF
:1026A800903AF8EEE77AC0ED076AC7EE876AC0EDA0
:1026B800066A7EE70346B2EE047A53F8522FC0F852
:1026C80042209B88A0F8463090F8432090F842308A
:1026D80003EB02231BB207EE903AF8EEE77A90F884
:1026E800452090F84430C7EE876A03EB02231BB2FB
:1026F80090F8472007EE903AF8EEE77AC0ED096ABD
:10270800C7EE876A90F8463003EB02231BB207EE48
:10271800903AF8EEE77AC0ED0A6AC7EE876AC0ED2C
:102728000B6A46E700007A44240000200000B44207
:10273800200000200000C84210B501EB83039DF87B
:102748000810182480F8484003EBC103162480F8C9
:10275800494003EB4203002480F84A4080F84B408C
:1027680080F84C3080F84D4080F84E4080F84F405B
:1027780010BD182380F8483080F84930002380F8CD
:102788004A3080F84B300B0A80F84C1080F84D30F6
:102798000B0C090E80F84E3080F84F10704700007F
:1027A80010B594B02A4B002100911A6C42F0805267
:1027B8001A641B6C03F080530093009B254B019116
:1027C8001A6842F440421A601B6803F440430193BC
:1027D800019B012307934FF4803308934FF4800340
:1027E8000E93082302240F9307A8B4230D94109383
:1027F800119412941394FFF701F900B1FEE7FEF764
:10280800C3FF00B1FEE70F2302934FF4A0530490D7
:10281800059305214FF4805302A803940693FEF70D
:10282800EFFF044600B1FEE7FFF784F84FF47A7330
:10283800B0FBF3F0FEF794FE0420FEF7A7FE224655
:1028480021464FF0FF30FEF74BFE14B010BD00BF1D
:1028580000380240007000400A4B10B5FF241C707D
:102868005C70987005240830DC70597103240144A9
:102878001C719A71140A51FA82F22244D243DC7113
:102888001A7210BD8000002038B504460A4D0B4866
:1028980000231918EA180133097D82F85010082B13
:1028A800F7D10548FFF742FE00212046FEF73CFC21
:1028B80000B1FEE738BD00BF28000020100200204C
:1028C80013B501211148124CFFF753FF0A21114893
:1028D800FEF75AFB01230022009311460B48FFF72D
:1028E8002BFF0A210B48FEF74FFB08480023C118AD
:1028F8001A19013391F848101175082BF7D10548BA
:102908000A2102B0BDE81040FEF73EBB28000020B7
:102918002C010020CC01002030B50F480F4B104C83
:1029280043638BB00023012569460463059306932E
:1029380007950093019302930393049308950993D1
:10294800FEF70CFA00B1FEE7082325606560E06039
:10295800A06023610BB030BDCC0100201002002024
:102968002C010020000000002DE9F04F87B0FEF791
:10297800CDF9FFF715FF0023A94A0193116BA94C64
:1029880041F080011163116B01F0800101910199FF
:102998000293116B41F001011163116B01F0010108
:1029A800029102990393116B41F002011163126BBA
:1029B800A36002F002020392039A9B4AE36009268D
:1029C80084E8440020464FF4003222616361A36129
:1029D800E36123626362A362E362FEF73FFA00B138
:1029E800FEE7924D924BA8604FF0590E284685E8B5
:1029F8000840EE60FFF79CFA00B1FEE704900590EE
:102A080004A92846FFF7AEFA00B1FEE7894D8A4BC4
:102A1800A8604FF4617785E8880028464FF47A6308
:102A2800EB60FFF785FA00B1FEE70490059004A972
:102A38002846FFF797FA00B1FEE7804D804E814B9C
:102A4800A86085E84800E86028610C26A861E8616C
:102A580028466E61FFF7FAFB00B1FEE77A4B7B4927
:102A680098604FF4E132D86018619861D8611846CF
:102A78005E6183E80600FFF7E9FB064600B1FEE762
:102A8800FFF74AFFFFF71CFF31462046FEF74CFBD5
:102A98000FF28419D9E900896D4C00264FF081475F
:102AA8006C4ADFED6D7AD2ED066A6C4BF4EEE76A9C
:102AB800F1EE10FA00F28D80C3ED007AD2ED086ACB
:102AC800DFF8A0B1F4EEE76AF1EE10FA00F28D80BB
:102AD800CBED007A92ED077ADFF88CA1B4EEE77AB5
:102AE800F1EE10FA00F28D80CAED007A1868FDF751
:102AF800EBFC42464B46FDF73BFD0B46024639468A
:102B08003046FDF781FBFDF745FF1E2182B201200B
:102B1800FFF7A2FEFF23214609222846FFF7C4FB40
:102B28004FF4007220210120FFF796FEFF230922AF
:102B380021462846FFF7B8FBDBF80000FDF7C4FC88
:102B480042464B46FDF714FD0B46024639463046D1
:102B5800FDF75AFBFDF71EFF1E2182B20320FFF787
:102B68007BFEFF23214609222846FFF79DFB96227C
:102B780020210320FFF770FEFF2309222146284663
:102B8800FFF792FBDAF80000FDF79EFC42464B4641
:102B9800FDF7EEFC3B463246FDF738FBFDF7FAFE43
:102BA8001E2182B20220FFF757FEFF232146092289
:102BB8002846FFF779FB962220210220FFF74CFEDA
:102BC800FF23092221462846FFF76EFBFEF7C0F8CF
:102BD80066E79FED237AF4EEC76AF1EE10FAB8BF04
:102BE800B0EE667A83ED007A68E79FED1D7AF4EE21
:102BF800C76AF1EE10FAB8BFB0EE667A8BED007ACC
:102C080068E7DFED177AB4EEE77AF1EE10FAB8BFAD
:102C1800F0EE477A68E700BF3333333333330B4082
:102C280000380240CC010020006400405001002020
:102C3800001000403402002000140040EC00002086
:102C480040420F00001001408C0100200044004069
:102C58008000002028000020000016C34801002042
:102C680000004843E80000204C01002008B503207C
:102C7800FEF724FC002211466FF00B00FEF730FC33
:102C8800002211466FF00A00FEF72AFC00221146C6
:102C98006FF00900FEF724FC002211466FF00400D3
:102CA800FEF71EFC002211466FF00300FEF718FC29
:102CB800002211466FF00100FEF712FC00221146B7
:102CC8004FF0FF30FEF70CFC002205201146FEF7FE
:102CD80007FC0520BDE80840FEF736BC10B50268C1
:102CE800144B9A4286B022D1002403F5EA330094AB
:102CF8001A6C114842F000721A641B6C039403F0BA
:102D080000730093009B4FF44073019302230293D6
:102D18000323049301A909230593FEF75BFC142000
:102D280022462146FEF7DCFB1420FEF70DFC06B018
:102D380010BD00BF006400400004024007B50368EE
:102D4800164A934215D10022154B0092196C41F096
:102D5800100119641B6C03F0100300933620114610
:102D6800009BFEF7BDFB3620FEF7EEFB03B05DF8D7
:102D780004FB0C4A9342F9D10022094B0192196CC9
:102D880041F0200119641B6C03F0200301933720E4
:102D98001146019BFEF7A4FB3720E5E70010004031
:102DA800003802400014004010B50368264A9342D8
:102DB80088B024D10024254B0194596C244841F053
:102DC800100159645B6C03F010030193019B4FF4ED
:102DD800C0630393022304930123059303230693FB
:102DE80003A907230793FEF7F5FB25202246214672
:102DF800FEF776FB2520FEF7A7FB08B010BD154AA5
:102E08009342FAD10024114B0294196C104841F4F2
:102E1800003119641B6C03F400330293029B0C23EA
:102E2800039302230493012305930323069303A921
:102E380007230793FEF7CEFB262022462146FEF7FE
:102E48004FFB2620D7E700BF0010014000380240A2
:102E580000000240004400407047FEE7FEE7FEE73E
:102E6800FEE770477047704708B5FDF769FFBDE892
:102E78000840FEF798BB70470148FEF733BA00BF19
:102E8800CC0100200148FFF7A9BA00BFEC000020E0
:102E98000148FFF7A3BA00BF8C0100200148FEF7E4
:102EA80040BF00BF500100200148FEF73ABF00BFF5
:102EB800340200200F49D1F8883043F47003C1F878
:102EC80088300D4B1A68002042F001021A609860A1
:102ED8001A6822F0847222F480321A60074A5A6013
:102EE8001A6822F480221A60D8604FF000638B6061
:102EF800704700BF00ED00E00038024010300024A9
:102F0800DFF834D0002103E00C4B5B584350043108
:102F18000B480C4B42189A42F6D30B4A02E00023A6
:102F280042F8043B094B9A42F9D3FFF7C3FF00F07C
:102F380011F8FFF719FD704700000220B8310008AA
:102F4800000000200400002004000020700200207F
:102F5800FEE7000070B50D4E0D4CA41BA410002513
:102F6800A54209D10B4E0C4C00F0F2F8A41BA4109A
:102F78000025A54205D170BD56F825309847013582
:102F8800EEE756F8253098470135F2E7B0310008EA
:102F9800B0310008B0310008B431000838B510EE7F
:102FA800105A25F00044B4F1A14FF0EE407A10DB3E
:102FB800B4F1FF4F04DD70EE007AB0EE670A38BD59
:102FC800DFED4C7A9FED4C7A002DC8BFF0EE477AC2
:102FD800F3E74A4B9C4210DCB4F1445F0ADA9FEDF8
:102FE800487A30EE077AF7EE006AB4EEE67AF1EE48
:102FF80010FAE2DC4FF0FF3313E000F0A1F8414B88
:103008009C424DDCA3F5D0039C423FDCF0EE007AF5
:10301800BFEE007AA0EE277A002330EE270AC7EE2B
:10302800007A5A1C27EEA76ADFED376ADFED375AB8
:103038009FED375A26EE067AE7EE265ADFED356A17
:10304800E7EE256ADFED345AE7EE265ADFED336AFC
:10305800E7EE256ADFED325AE7EE265ADFED316AF0
:10306800A7EE265ADFED306AE7EE056A9FED2F5A84
:10307800A7EE265ADFED2E6AE7EE056A26EE877A76
:1030880005EE867A21D1E7EEC77A96E7F7EE007A61
:1030980030EE677A30EE270A0123C7EE007AC0E7E0
:1030A800244B9C420BDCF7EE087AB7EE007AA0EED0
:1030B800277A022370EE676AC6EE877AB1E7BFEE19
:1030C800007AC7EE007A0323ABE71B4A1B499B0033
:1030D8001A440B44D3ED006AD7EE876A002D92EDAF
:1030E800007A76EEE77A77EE677AB8BFF1EE677A1C
:1030F80063E700BFDB0FC9BFDB0FC93FFFFFDF3E40
:10310800CAF24971FFFF973FD769853C59DA4B3DB1
:103118006BF16EBD356B883D6E2EBA3D2549123E6A
:10312800ABAAAA3E21A215BD95879DBD388EE3BDE9
:10313800CDCC4CBEFFFF1B408831000898310008F9
:1031480010EE103A23F0004300EE103A70470000EA
:10315800F8B500BFF8BC08BC9E467047F8B500BF7C
:08316800F8BC08BC9E4670474C
:103170000000000000000000010203040607080927
:1031800000000000010203043863ED3EDA0F493FFE
:103190005E987B3FDA0FC93F6937AC316821223333
:0831A000B40F14336821A233BF
:0831A80064D8FF7F0100000064
:0431B000ED01000825
:0431B400C901000845
:0431B8000024F400FB
:0400000508002F09B7
:00000001FF
